{
  "contractName": "CertificateRecord",
  "abi": [
    {
      "inputs": [],
      "payable": false,
      "stateMutability": "nonpayable",
      "type": "constructor"
    },
    {
      "constant": false,
      "inputs": [
        {
          "internalType": "string",
          "name": "_name",
          "type": "string"
        },
        {
          "internalType": "string",
          "name": "_hash",
          "type": "string"
        },
        {
          "internalType": "string",
          "name": "_student",
          "type": "string"
        },
        {
          "internalType": "string",
          "name": "_date",
          "type": "string"
        }
      ],
      "name": "setCertificate",
      "outputs": [],
      "payable": false,
      "stateMutability": "nonpayable",
      "type": "function"
    },
    {
      "constant": true,
      "inputs": [],
      "name": "getCertificate",
      "outputs": [
        {
          "internalType": "string",
          "name": "",
          "type": "string"
        },
        {
          "internalType": "string",
          "name": "",
          "type": "string"
        },
        {
          "internalType": "string",
          "name": "",
          "type": "string"
        },
        {
          "internalType": "string",
          "name": "",
          "type": "string"
        }
      ],
      "payable": false,
      "stateMutability": "view",
      "type": "function"
    },
    {
      "constant": true,
      "inputs": [],
      "name": "getHash",
      "outputs": [
        {
          "internalType": "string",
          "name": "",
          "type": "string"
        }
      ],
      "payable": false,
      "stateMutability": "view",
      "type": "function"
    }
  ],
  "bytecode": "0x608060405234801561001057600080fd5b506040518060400160405280600481526020017f6e616d65000000000000000000000000000000000000000000000000000000008152506000908051906020019061005c929190610146565b506040518060400160405280600481526020017f6861736800000000000000000000000000000000000000000000000000000000815250600190805190602001906100a8929190610146565b506040518060400160405280600681526020017f7374756465740000000000000000000000000000000000000000000000000000815250600290805190602001906100f4929190610146565b506040518060400160405280600a81526020017f323032302d30382d30310000000000000000000000000000000000000000000081525060039080519060200190610140929190610146565b506101eb565b828054600181600116156101000203166002900490600052602060002090601f016020900481019282601f1061018757805160ff19168380011785556101b5565b828001600101855582156101b5579182015b828111156101b4578251825591602001919060010190610199565b5b5090506101c291906101c6565b5090565b6101e891905b808211156101e45760008160009055506001016101cc565b5090565b90565b61097a806101fa6000396000f3fe608060405234801561001057600080fd5b50600436106100415760003560e01c8063ae15eb8e14610046578063d13319c41461020d578063f2c2f44514610290575b600080fd5b61004e610510565b6040518080602001806020018060200180602001858103855289818151815260200191508051906020019080838360005b8381101561009a57808201518184015260208101905061007f565b50505050905090810190601f1680156100c75780820380516001836020036101000a031916815260200191505b50858103845288818151815260200191508051906020019080838360005b838110156101005780820151818401526020810190506100e5565b50505050905090810190601f16801561012d5780820380516001836020036101000a031916815260200191505b50858103835287818151815260200191508051906020019080838360005b8381101561016657808201518184015260208101905061014b565b50505050905090810190601f1680156101935780820380516001836020036101000a031916815260200191505b50858103825286818151815260200191508051906020019080838360005b838110156101cc5780820151818401526020810190506101b1565b50505050905090810190601f1680156101f95780820380516001836020036101000a031916815260200191505b509850505050505050505060405180910390f35b61021561079c565b6040518080602001828103825283818151815260200191508051906020019080838360005b8381101561025557808201518184015260208101905061023a565b50505050905090810190601f1680156102825780820380516001836020036101000a031916815260200191505b509250505060405180910390f35b61050e600480360360808110156102a657600080fd5b81019080803590602001906401000000008111156102c357600080fd5b8201836020820111156102d557600080fd5b803590602001918460018302840111640100000000831117156102f757600080fd5b91908080601f016020809104026020016040519081016040528093929190818152602001838380828437600081840152601f19601f8201169050808301925050505050505091929192908035906020019064010000000081111561035a57600080fd5b82018360208201111561036c57600080fd5b8035906020019184600183028401116401000000008311171561038e57600080fd5b91908080601f016020809104026020016040519081016040528093929190818152602001838380828437600081840152601f19601f820116905080830192505050505050509192919290803590602001906401000000008111156103f157600080fd5b82018360208201111561040357600080fd5b8035906020019184600183028401116401000000008311171561042557600080fd5b91908080601f016020809104026020016040519081016040528093929190818152602001838380828437600081840152601f19601f8201169050808301925050505050505091929192908035906020019064010000000081111561048857600080fd5b82018360208201111561049a57600080fd5b803590602001918460018302840111640100000000831117156104bc57600080fd5b91908080601f016020809104026020016040519081016040528093929190818152602001838380828437600081840152601f19601f82011690508083019250505050505050919291929050505061083e565b005b6060806060806000600160026003838054600181600116156101000203166002900480601f0160208091040260200160405190810160405280929190818152602001828054600181600116156101000203166002900480156105b35780601f10610588576101008083540402835291602001916105b3565b820191906000526020600020905b81548152906001019060200180831161059657829003601f168201915b50505050509350828054600181600116156101000203166002900480601f01602080910402602001604051908101604052809291908181526020018280546001816001161561010002031660029004801561064f5780601f106106245761010080835404028352916020019161064f565b820191906000526020600020905b81548152906001019060200180831161063257829003601f168201915b50505050509250818054600181600116156101000203166002900480601f0160208091040260200160405190810160405280929190818152602001828054600181600116156101000203166002900480156106eb5780601f106106c0576101008083540402835291602001916106eb565b820191906000526020600020905b8154815290600101906020018083116106ce57829003601f168201915b50505050509150808054600181600116156101000203166002900480601f0160208091040260200160405190810160405280929190818152602001828054600181600116156101000203166002900480156107875780601f1061075c57610100808354040283529160200191610787565b820191906000526020600020905b81548152906001019060200180831161076a57829003601f168201915b50505050509050935093509350935090919293565b606060018054600181600116156101000203166002900480601f0160208091040260200160405190810160405280929190818152602001828054600181600116156101000203166002900480156108345780601f1061080957610100808354040283529160200191610834565b820191906000526020600020905b81548152906001019060200180831161081757829003601f168201915b5050505050905090565b83600090805190602001906108549291906108a0565b50826001908051906020019061086b9291906108a0565b5081600290805190602001906108829291906108a0565b5080600390805190602001906108999291906108a0565b5050505050565b828054600181600116156101000203166002900490600052602060002090601f016020900481019282601f106108e157805160ff191683800117855561090f565b8280016001018555821561090f579182015b8281111561090e5782518255916020019190600101906108f3565b5b50905061091c9190610920565b5090565b61094291905b8082111561093e576000816000905550600101610926565b5090565b9056fea265627a7a723158203fdacd05b938b8983855d672c3c9ce7ad291b8d7d86c68ef89091c8b98991cf264736f6c63430005100032",
  "source": "//pragma solidity ^0.4.25;\r\npragma solidity >=0.5.0;\r\n\r\ncontract CertificateRecord {\r\n    //VARS\r\n    string private name;\r\n    string private hash;\r\n    string private student;\r\n    string private date;\r\n\r\n    // struct certificate{\r\n    //     string name;\r\n    //     string hash;\r\n    //     string student;\r\n    //     string date;\r\n    // }\r\n\r\n    // certificate private crt_obj;\r\n\r\n    //Constructor\r\n    constructor() public{\r\n        name = \"name\";\r\n        hash = \"hash\";\r\n        student = \"studet\";\r\n        date = \"2020-08-01\";\r\n        //crt_obj = certificate({name:name, hash: hash, student:student, date:date });\r\n    }\r\n    \r\n    \r\n    \r\n\r\n    function setCertificate(string memory _name, string memory _hash, string memory _student, string memory _date) public {\r\n        //crt_obj = certificate({name:_name, hash: _hash, student:_student, date:_date });\r\n        name = _name;\r\n        hash = _hash;\r\n        student = _student;\r\n        date = _date;\r\n    }\r\n  \r\n    function getCertificate() public view returns (string memory, string memory, string memory, string memory) {\r\n        //return (crt_obj.name, crt_obj.name, crt_obj.name, crt_obj.date);\r\n        return (name, hash, student, date);\r\n    }\r\n\r\n    function getHash() public view returns (string memory) {\r\n        return hash;\r\n    }\r\n}",
  "sourcePath": "C:/wamp/www/Proyectos/blockchain/api2/contracts/certificate.sol",
  "compiler": {
    "name": "solc",
    "version": "0.5.16+commit.9c3226ce.Emscripten.clang"
  },
  "schemaVersion": "3.2.4",
  "updatedAt": "2020-09-01T13:45:46.951Z",
  "networkType": "ethereum",
  "devdoc": {
    "methods": {}
  },
  "userdoc": {
    "methods": {}
  }
}